:020000040000fa
:04003400fa120000bc
:020000040000fa
:082000000012040000000000c2
:020000040000fa
:1020080000000000000000000000000000000000c8
:1020180000000000000000000000000000000000b8
:1020280000000000000000000000000000000000a8
:102038000000000000000000000000000000000098
:102048000000000000000000000000000000000088
:102058000000000000000000000000000000000078
:102068000000000000000000000000000000000068
:102078000000000000000000000000000000000058
:102088000000000000000000000000000000000048
:102098000000000000000000000000000000000038
:020000040000fa
:102400002f0021000eff24000e01880000000000b4
:10241000000020000000e000020032000001200067
:1024200020028800140007008c0007000000e00074
:1024300003003a00e03d21000100200002003700c7
:102440000000200001002000810f70000100320018
:102450000f000700000020000000e0000200320032
:102460000000020000000000301302000000000025
:102470000040da000000fe00200020000000e00024
:1024800002003200100020009001880000000600c9
:10249000a1028800800478000000eb001f003700d4
:1024a000e284440054a0b4009905ba00e2844400d8
:1024b00054a0b4009906ba00e284440054a0b400c9
:1024c0000006eb00476fde00fd07b200ae0188009a
:1024d000636ce10003003a000ad801000000eb0041
:1024e0000e003700606ce10008003a00004deb0080
:1024f0000a05e800020039003420ec000af0a000d0
:102500008b05e900f9ff3e00040037006168e10037
:10251000010032000086eb000b00070019c7ba006b
:102520000e04e0001905ba0003003a000a00e000ba
:10253000dbff3a0000000600fe07b200ae02880092
:102540008a047800f5ff37000cd0a300e20f4d009d
:102550001c00390089027800354dba000a05e800f0
:10256000020039003420ec000af0a0008b05e900dd
:102570000f003200254dba000a05e80002003900bc
:102580003420ec000af0a0008b05e90008003200be
:102590000c00e0000600320015cdba000a05e80084
:1025a000020039003420ec000af0a0008b05e9009d
:1025b0008984e80054a0b4000b00e000e2ff3a0078
:1025c000000006009902ba00055d78008b05e9005d
:1025d000f7ff3200c82ade00055d78008b05e900b0
:1025e000f3ff32000c00e000f1ff320019ddba0009
:1025f000eeff3700809fbe00821f78000000fa00c7
:102600000080800000407800614060000080fb0096
:10261000610060004900dd00a2708000f1df2f0042
:102620008100610001007000a070880000808000bf
:1026300000f0a7000000ea000000e9004f00de0003
:10264000008088000021ef000068a9000080fa00e7
:102650004f0178004f00be0000400600000005005a
:020000040000fa
:102660000000fa002b000700112ea90000eea900bf
:10267000042eef00152ea800152ea900006a2800d0
:102680001100200011000700152ea800006a280084
:10269000110020000d000700152ea900006a280077
:1026a0001100200009000700152ea800006a28006c
:1026b0001100200005000700152ea900007c220053
:1026c0009100200001000700ebff37000400fa0032
:1026d000008fbe00000000001e0090001e00700071
:1026e00000f0a7000000ea000000ea004f00de0052
:1026f000004078000081eb008081eb001e0f41005c
:102700005e9749000004e000f3ff3a000080fa0001
:10271000000006000000fa00a0032000303a880004
:10272000213a8000f0f32f0000806000203a8800fa
:10273000213a800000fe2f0000806000203a8800cf
:102740004827ef0040a7a9003200200080072000a2
:10275000a109200033742000804978008149780065
:1027600082497800120020006004200071052000da
:1027700023742000804978008149780082497800dc
:1027800000000000113a80000000270080806000f7
:1027900000002300808f5000faff3a000000000084
:1027a000113a800000022000008060000000e0007c
:0c27b000fbff32000080fa000000060071
:020000040000fa
:1027bc000010000002000000810000000100000079
:0427cc000000000009
:020000040000fa
:020000040002f8
:04afe000ceff0000a0
:020000040000fa
:020000040002f8
:04afe400ffff00006b
:020000040000fa
:020000040002f8
:04afe8007fff0000e7
:020000040000fa
:020000040002f8
:04afec0079ff0000e9
:020000040000fa
:020000040002f8
:04aff00039ff000025
:020000040000fa
:020000040002f8
:04aff400ffff00005b
:00000001FF
